:020000000F2AC5
:06000600000000000800EC
:10000C000F3083120313FC004730FD00FD0B0C284E
:0A001C00FC0B0C2800000000080097
:0E002600213083120313FD00FD0B1728080084
:100034007B15FB1F24280130F300F201F101F001CC
:08004400FA0DF20CFF30080078
:0E004C00F201F101F001F801F30100300800AB
:08005A00FA1FF2130030080048
:1000620083160313DA1B3828831288123A28831264
:10007200881683165A1B40288312081242288312BC
:1000820008168316DA1A4828831288114A2883121E
:10009200881583165A1A502883120811522883127F
:1000A2000815831654185828831208145A288312E4
:1000B20008108814032088108316DA196328831223
:1000C200881265288312881683165A196B288312A0
:1000D20008126D28831208168316DA187328831201
:1000E200881175288312881583165A187B28831263
:1000F20008117D2883120815831654188328831249
:100102000814852883120810881403208810831687
:0C011200541C8D2806208E2813200800A5
:10011E008316031354105908DA0031208316541431
:02012E000800C7
:0E013000831203136F088A006E088200080015
:10013E000E3083120313FD00FD0BA32800000800F0
:10014E00A0017208031DBC287108F2007008F100AE
:10015E00F001A0157208031DBC287108F200F10110
:10016E00A011201672080319CA282008F302031DD5
:10017E00031CCE280310F21BD228F00DF10DF20D48
:10018E00F30BC228CE280130FC002620D5280230E1
:0E019E00FC001A20D5280430FC002D2008009B
:1001AC00831203137008F8007108F000F101F201DA
:1001BC00F301FB01FC019630F300FA017008F10029
:0C01CC007808F000F801F201A7200800FC
:1001D800C330831203139F05C0309F008316550850
:1001E800F000F00D7010F00D7010700883129F046D
:1001F80083169F1783121F149F209F149F1C062984
:10020800000002291F101E08F100F00183161E08C5
:08021800F0040030F1040800BD
:1002200083120313FA017308031D7A147708031D60
:10023000FA147A0803195C29033A031927297A1852
:100240002429F61F5A295829F21F58295A297208B9
:100250008039FA00F21376088039F6137A0603190A
:1002600035297A08031958295A297708730203197E
:100270003C29031C5029542976087202031943298A
:10028000031C502954297508710203194A29031CBB
:10029000502954297408700203195C290318542941
:1002A000FA0803195A295829FA08031958295A290A
:1002B00003140800031008000314031508000800C5
:1002C000FF3083160313D100FF30D200FF30D3007C
:1002D000FF30C33083129F05C0309F0083169F17E5
:0602E00083121F14080048
:1002E60098208A110A128000840AEE0A0319EF0A7E
:0802F600F003031D7329080049
:1002FE009129803083160313D500A429C030D50070
:10030E00A4299430D500A429D430D500A429803056
:10031E00D500A429831603135508013A0319802921
:10032E005508023A031985295508033A03198829F5
:10033E005508043A03198B298E295603F0005508E7
:10034E00F0077008D5007008DA00312083165410BB
:10035E00D80158085707840000080319BE29580809
:10036E00570784000008D9008F20D80AB0295414EA
:02037E00080075
:1003800083160313881008100811881108128812A8
:10039000831288100810881208128811081106208C
:1003A00006200620881508158814032088100620CA
:1003B0008814032088100620881403208810062043
:1003C0000811881403208810062088140320881040
:1003D00088118816881403208810062088120815B2
:1003E0008814032088100811881403208810062020
:1003F000881403208810081588140320881006200C
:100400000811881403208810881608168815081506
:0E041000881403208810062083165414080058
:10041E008623831603138701831287016021C0216F
:10042E000130DA0031200C308316DA003120013031
:10043E008316D5000130D6002C30D7007F21023034
:10044E00D5000130D6002130D7007F211530FB00BA
:10045E004B30FC00BE30FD008316FD0B332AFC0B27
:10046E00332AFB0B332A00000130DA003120013031
:10047E008316D5000130D600A030D7007F21023080
:10048E00D5000130D6006330D7007F211530FB0038
:10049E004B30FC00BE30FD00FD0B532AFC0B532AE3
:1004AE00FB0B532A00000130DA0031200130831695
:1004BE00D5000130D600B030D7007F210230D500F4
:1004CE000130D600C530D7007F211530FB004B30F0
:1004DE00FC00BE30FD00FD0B722AFC0B722AFB0BDA
:1004EE00722A00000130DA00312001308316D50067
:1004FE00EC20D62070088316C1007108C200720865
:10050E00C3007308C4007008F4007108F500720887
:10051E00F6007308F7000030F0000030F1001630DE
:10052E00F2008830F3001021013003180030F00083
:10053E0070080319C52AFD3087000630FB00133002
:10054E00FC00AD30FD00FD0BAA2AFC0BAA2AFB0B0A
:10055E00AA2A0000000001308316DA003120013093
:10056E008316D5000530D6005A30D7007F210230D1
:10057E00D5000530D6004730D7007F2183164108BD
:10058E00F4004208F5004308F6004408F700003076
:10059E00F0000030F1001630F2008830F300102128
:1005AE000130031C0030F00070080319002B870186
:1005BE000630FB001330FC00AD30FD00FD0BE52ACC
:1005CE00FC0BE52AFB0BE52A000000000130831628
:1005DE00DA00312001308316D5000530D6003C30CC
:1005EE00D7007F210230D5000530D6005030D7001D
:0605FE007F217C2A012B85
:10070C00213084004D3083120313F0000730EE00CB
:10071C000330EF007321A0308400313083120313B7
:0E072C00F0005430EE000330EF00732108009F
:10060E0020342034203420347334793473347434E9
:06061E0065346D34003468
:100624002034203420342034493472347234693410
:1006340067346134743469346F346E342034003474
:10064400483475346D3469346434203453346F342D
:0606540069346C3400342F
:10065A004D346F3474346F34723420344F346E3402
:02066A0000345A
:10066C004D346F3474346F34723420344F34463418
:04067C0046340034CC
:10068000443472347934203453346F3469346C34E4
:02069000003434
:100692002034203420342034733479347334743465
:0606A20065346D340034E4
:1006A80020342034203420344134753474346F3489
:1006B8006D346134743469346F346E3420340034EA
:1006C8002034203453344F3449344C3420344D349E
:1006D8004F34493453345434553452344534203427
:0206E8000034DC
:0806EA00003400340034003438
:1006F20020346134753474346F346D34613474343D
:0807020069346F346E340034D9
:04400E00F72F000781
:00000001FF
